{
  "contractName": "customERC20",
  "abi": [
    {
      "inputs": [
        {
          "internalType": "string",
          "name": "_name",
          "type": "string"
        },
        {
          "internalType": "string",
          "name": "_symbol",
          "type": "string"
        }
      ],
      "stateMutability": "nonpayable",
      "type": "constructor"
    },
    {
      "anonymous": false,
      "inputs": [
        {
          "indexed": true,
          "internalType": "address",
          "name": "owner",
          "type": "address"
        },
        {
          "indexed": true,
          "internalType": "address",
          "name": "spender",
          "type": "address"
        },
        {
          "indexed": false,
          "internalType": "uint256",
          "name": "value",
          "type": "uint256"
        }
      ],
      "name": "Approval",
      "type": "event"
    },
    {
      "anonymous": false,
      "inputs": [
        {
          "indexed": true,
          "internalType": "address",
          "name": "from",
          "type": "address"
        },
        {
          "indexed": true,
          "internalType": "address",
          "name": "to",
          "type": "address"
        },
        {
          "indexed": false,
          "internalType": "uint256",
          "name": "value",
          "type": "uint256"
        }
      ],
      "name": "Transfer",
      "type": "event"
    },
    {
      "inputs": [
        {
          "internalType": "address",
          "name": "owner",
          "type": "address"
        },
        {
          "internalType": "address",
          "name": "spender",
          "type": "address"
        }
      ],
      "name": "allowance",
      "outputs": [
        {
          "internalType": "uint256",
          "name": "",
          "type": "uint256"
        }
      ],
      "stateMutability": "view",
      "type": "function",
      "constant": true
    },
    {
      "inputs": [
        {
          "internalType": "address",
          "name": "spender",
          "type": "address"
        },
        {
          "internalType": "uint256",
          "name": "amount",
          "type": "uint256"
        }
      ],
      "name": "approve",
      "outputs": [
        {
          "internalType": "bool",
          "name": "",
          "type": "bool"
        }
      ],
      "stateMutability": "nonpayable",
      "type": "function"
    },
    {
      "inputs": [
        {
          "internalType": "address",
          "name": "account",
          "type": "address"
        }
      ],
      "name": "balanceOf",
      "outputs": [
        {
          "internalType": "uint256",
          "name": "",
          "type": "uint256"
        }
      ],
      "stateMutability": "view",
      "type": "function",
      "constant": true
    },
    {
      "inputs": [],
      "name": "decimals",
      "outputs": [
        {
          "internalType": "uint8",
          "name": "",
          "type": "uint8"
        }
      ],
      "stateMutability": "view",
      "type": "function",
      "constant": true
    },
    {
      "inputs": [
        {
          "internalType": "address",
          "name": "spender",
          "type": "address"
        },
        {
          "internalType": "uint256",
          "name": "subtractedValue",
          "type": "uint256"
        }
      ],
      "name": "decreaseAllowance",
      "outputs": [
        {
          "internalType": "bool",
          "name": "",
          "type": "bool"
        }
      ],
      "stateMutability": "nonpayable",
      "type": "function"
    },
    {
      "inputs": [
        {
          "internalType": "address",
          "name": "spender",
          "type": "address"
        },
        {
          "internalType": "uint256",
          "name": "addedValue",
          "type": "uint256"
        }
      ],
      "name": "increaseAllowance",
      "outputs": [
        {
          "internalType": "bool",
          "name": "",
          "type": "bool"
        }
      ],
      "stateMutability": "nonpayable",
      "type": "function"
    },
    {
      "inputs": [],
      "name": "name",
      "outputs": [
        {
          "internalType": "string",
          "name": "",
          "type": "string"
        }
      ],
      "stateMutability": "view",
      "type": "function",
      "constant": true
    },
    {
      "inputs": [],
      "name": "symbol",
      "outputs": [
        {
          "internalType": "string",
          "name": "",
          "type": "string"
        }
      ],
      "stateMutability": "view",
      "type": "function",
      "constant": true
    },
    {
      "inputs": [],
      "name": "totalSupply",
      "outputs": [
        {
          "internalType": "uint256",
          "name": "",
          "type": "uint256"
        }
      ],
      "stateMutability": "view",
      "type": "function",
      "constant": true
    },
    {
      "inputs": [
        {
          "internalType": "address",
          "name": "to",
          "type": "address"
        },
        {
          "internalType": "uint256",
          "name": "amount",
          "type": "uint256"
        }
      ],
      "name": "transfer",
      "outputs": [
        {
          "internalType": "bool",
          "name": "",
          "type": "bool"
        }
      ],
      "stateMutability": "nonpayable",
      "type": "function"
    },
    {
      "inputs": [
        {
          "internalType": "address",
          "name": "from",
          "type": "address"
        },
        {
          "internalType": "address",
          "name": "to",
          "type": "address"
        },
        {
          "internalType": "uint256",
          "name": "amount",
          "type": "uint256"
        }
      ],
      "name": "transferFrom",
      "outputs": [
        {
          "internalType": "bool",
          "name": "",
          "type": "bool"
        }
      ],
      "stateMutability": "nonpayable",
      "type": "function"
    },
    {
      "inputs": [],
      "name": "crearTokens",
      "outputs": [],
      "stateMutability": "nonpayable",
      "type": "function"
    }
  ],
  "bytecode": "0x60806040523480156200001157600080fd5b506040516200188738038062001887833981810160405281019062000037919062000197565b818181600390805190602001906200005192919062000075565b5080600490805190602001906200006a92919062000075565b50505050506200037a565b82805462000083906200029f565b90600052602060002090601f016020900481019282620000a75760008555620000f3565b82601f10620000c257805160ff1916838001178555620000f3565b82800160010185558215620000f3579182015b82811115620000f2578251825591602001919060010190620000d5565b5b50905062000102919062000106565b5090565b5b808211156200012157600081600090555060010162000107565b5090565b60006200013c620001368462000233565b6200020a565b9050828152602081018484840111156200015557600080fd5b6200016284828562000269565b509392505050565b600082601f8301126200017c57600080fd5b81516200018e84826020860162000125565b91505092915050565b60008060408385031215620001ab57600080fd5b600083015167ffffffffffffffff811115620001c657600080fd5b620001d4858286016200016a565b925050602083015167ffffffffffffffff811115620001f257600080fd5b62000200858286016200016a565b9150509250929050565b60006200021662000229565b9050620002248282620002d5565b919050565b6000604051905090565b600067ffffffffffffffff8211156200025157620002506200033a565b5b6200025c8262000369565b9050602081019050919050565b60005b83811015620002895780820151818401526020810190506200026c565b8381111562000299576000848401525b50505050565b60006002820490506001821680620002b857607f821691505b60208210811415620002cf57620002ce6200030b565b5b50919050565b620002e08262000369565b810181811067ffffffffffffffff821117156200030257620003016200033a565b5b80604052505050565b7f4e487b7100000000000000000000000000000000000000000000000000000000600052602260045260246000fd5b7f4e487b7100000000000000000000000000000000000000000000000000000000600052604160045260246000fd5b6000601f19601f8301169050919050565b6114fd806200038a6000396000f3fe608060405234801561001057600080fd5b50600436106100b45760003560e01c8063467bc5c011610071578063467bc5c0146101a357806370a08231146101ad57806395d89b41146101dd578063a457c2d7146101fb578063a9059cbb1461022b578063dd62ed3e1461025b576100b4565b806306fdde03146100b9578063095ea7b3146100d757806318160ddd1461010757806323b872dd14610125578063313ce567146101555780633950935114610173575b600080fd5b6100c161028b565b6040516100ce9190610f7a565b60405180910390f35b6100f160048036038101906100ec9190610da5565b61031d565b6040516100fe9190610f5f565b60405180910390f35b61010f610339565b60405161011c919061109c565b60405180910390f35b61013f600480360381019061013a9190610d56565b610343565b60405161014c9190610f5f565b60405180910390f35b61015d61036b565b60405161016a91906110b7565b60405180910390f35b61018d60048036038101906101889190610da5565b610374565b60405161019a9190610f5f565b60405180910390f35b6101ab610417565b005b6101c760048036038101906101c29190610cf1565b610425565b6040516101d4919061109c565b60405180910390f35b6101e561046d565b6040516101f29190610f7a565b60405180910390f35b61021560048036038101906102109190610da5565b6104ff565b6040516102229190610f5f565b60405180910390f35b61024560048036038101906102409190610da5565b6105e2565b6040516102529190610f5f565b60405180910390f35b61027560048036038101906102709190610d1a565b6105fe565b604051610282919061109c565b60405180910390f35b60606003805461029a906111cc565b80601f01602080910402602001604051908101604052809291908181526020018280546102c6906111cc565b80156103135780601f106102e857610100808354040283529160200191610313565b820191906000526020600020905b8154815290600101906020018083116102f657829003601f168201915b5050505050905090565b60008033905061032e818585610685565b600191505092915050565b6000600254905090565b600080339050610354858285610850565b61035f8585856108dc565b60019150509392505050565b60006012905090565b60008033905061040c818585600160008673ffffffffffffffffffffffffffffffffffffffff1673ffffffffffffffffffffffffffffffffffffffff16815260200190815260200160002060008973ffffffffffffffffffffffffffffffffffffffff1673ffffffffffffffffffffffffffffffffffffffff1681526020019081526020016000205461040791906110ee565b610685565b600191505092915050565b610423336103e8610b5d565b565b60008060008373ffffffffffffffffffffffffffffffffffffffff1673ffffffffffffffffffffffffffffffffffffffff168152602001908152602001600020549050919050565b60606004805461047c906111cc565b80601f01602080910402602001604051908101604052809291908181526020018280546104a8906111cc565b80156104f55780601f106104ca576101008083540402835291602001916104f5565b820191906000526020600020905b8154815290600101906020018083116104d857829003601f168201915b5050505050905090565b6000803390506000600160008373ffffffffffffffffffffffffffffffffffffffff1673ffffffffffffffffffffffffffffffffffffffff16815260200190815260200160002060008673ffffffffffffffffffffffffffffffffffffffff1673ffffffffffffffffffffffffffffffffffffffff168152602001908152602001600020549050838110156105c9576040517f08c379a00000000000000000000000000000000000000000000000000000000081526004016105c09061105c565b60405180910390fd5b6105d68286868403610685565b60019250505092915050565b6000803390506105f38185856108dc565b600191505092915050565b6000600160008473ffffffffffffffffffffffffffffffffffffffff1673ffffffffffffffffffffffffffffffffffffffff16815260200190815260200160002060008373ffffffffffffffffffffffffffffffffffffffff1673ffffffffffffffffffffffffffffffffffffffff16815260200190815260200160002054905092915050565b600073ffffffffffffffffffffffffffffffffffffffff168373ffffffffffffffffffffffffffffffffffffffff1614156106f5576040517f08c379a00000000000000000000000000000000000000000000000000000000081526004016106ec9061103c565b60405180910390fd5b600073ffffffffffffffffffffffffffffffffffffffff168273ffffffffffffffffffffffffffffffffffffffff161415610765576040517f08c379a000000000000000000000000000000000000000000000000000000000815260040161075c90610fbc565b60405180910390fd5b80600160008573ffffffffffffffffffffffffffffffffffffffff1673ffffffffffffffffffffffffffffffffffffffff16815260200190815260200160002060008473ffffffffffffffffffffffffffffffffffffffff1673ffffffffffffffffffffffffffffffffffffffff168152602001908152602001600020819055508173ffffffffffffffffffffffffffffffffffffffff168373ffffffffffffffffffffffffffffffffffffffff167f8c5be1e5ebec7d5bd14f71427d1e84f3dd0314c0f7b2291e5b200ac8c7c3b92583604051610843919061109c565b60405180910390a3505050565b600061085c84846105fe565b90507fffffffffffffffffffffffffffffffffffffffffffffffffffffffffffffffff81146108d657818110156108c8576040517f08c379a00000000000000000000000000000000000000000000000000000000081526004016108bf90610fdc565b60405180910390fd5b6108d58484848403610685565b5b50505050565b600073ffffffffffffffffffffffffffffffffffffffff168373ffffffffffffffffffffffffffffffffffffffff16141561094c576040517f08c379a00000000000000000000000000000000000000000000000000000000081526004016109439061101c565b60405180910390fd5b600073ffffffffffffffffffffffffffffffffffffffff168273ffffffffffffffffffffffffffffffffffffffff1614156109bc576040517f08c379a00000000000000000000000000000000000000000000000000000000081526004016109b390610f9c565b60405180910390fd5b6109c7838383610cbd565b60008060008573ffffffffffffffffffffffffffffffffffffffff1673ffffffffffffffffffffffffffffffffffffffff16815260200190815260200160002054905081811015610a4d576040517f08c379a0000000000000000000000000000000000000000000000000000000008152600401610a4490610ffc565b60405180910390fd5b8181036000808673ffffffffffffffffffffffffffffffffffffffff1673ffffffffffffffffffffffffffffffffffffffff16815260200190815260200160002081905550816000808573ffffffffffffffffffffffffffffffffffffffff1673ffffffffffffffffffffffffffffffffffffffff1681526020019081526020016000206000828254610ae091906110ee565b925050819055508273ffffffffffffffffffffffffffffffffffffffff168473ffffffffffffffffffffffffffffffffffffffff167fddf252ad1be2c89b69c2b068fc378daa952ba7f163c4a11628f55a4df523b3ef84604051610b44919061109c565b60405180910390a3610b57848484610cc2565b50505050565b600073ffffffffffffffffffffffffffffffffffffffff168273ffffffffffffffffffffffffffffffffffffffff161415610bcd576040517f08c379a0000000000000000000000000000000000000000000000000000000008152600401610bc49061107c565b60405180910390fd5b610bd960008383610cbd565b8060026000828254610beb91906110ee565b92505081905550806000808473ffffffffffffffffffffffffffffffffffffffff1673ffffffffffffffffffffffffffffffffffffffff1681526020019081526020016000206000828254610c4091906110ee565b925050819055508173ffffffffffffffffffffffffffffffffffffffff16600073ffffffffffffffffffffffffffffffffffffffff167fddf252ad1be2c89b69c2b068fc378daa952ba7f163c4a11628f55a4df523b3ef83604051610ca5919061109c565b60405180910390a3610cb960008383610cc2565b5050565b505050565b505050565b600081359050610cd681611499565b92915050565b600081359050610ceb816114b0565b92915050565b600060208284031215610d0357600080fd5b6000610d1184828501610cc7565b91505092915050565b60008060408385031215610d2d57600080fd5b6000610d3b85828601610cc7565b9250506020610d4c85828601610cc7565b9150509250929050565b600080600060608486031215610d6b57600080fd5b6000610d7986828701610cc7565b9350506020610d8a86828701610cc7565b9250506040610d9b86828701610cdc565b9150509250925092565b60008060408385031215610db857600080fd5b6000610dc685828601610cc7565b9250506020610dd785828601610cdc565b9150509250929050565b610dea81611156565b82525050565b6000610dfb826110d2565b610e0581856110dd565b9350610e15818560208601611199565b610e1e8161125c565b840191505092915050565b6000610e366023836110dd565b9150610e418261126d565b604082019050919050565b6000610e596022836110dd565b9150610e64826112bc565b604082019050919050565b6000610e7c601d836110dd565b9150610e878261130b565b602082019050919050565b6000610e9f6026836110dd565b9150610eaa82611334565b604082019050919050565b6000610ec26025836110dd565b9150610ecd82611383565b604082019050919050565b6000610ee56024836110dd565b9150610ef0826113d2565b604082019050919050565b6000610f086025836110dd565b9150610f1382611421565b604082019050919050565b6000610f2b601f836110dd565b9150610f3682611470565b602082019050919050565b610f4a81611182565b82525050565b610f598161118c565b82525050565b6000602082019050610f746000830184610de1565b92915050565b60006020820190508181036000830152610f948184610df0565b905092915050565b60006020820190508181036000830152610fb581610e29565b9050919050565b60006020820190508181036000830152610fd581610e4c565b9050919050565b60006020820190508181036000830152610ff581610e6f565b9050919050565b6000602082019050818103600083015261101581610e92565b9050919050565b6000602082019050818103600083015261103581610eb5565b9050919050565b6000602082019050818103600083015261105581610ed8565b9050919050565b6000602082019050818103600083015261107581610efb565b9050919050565b6000602082019050818103600083015261109581610f1e565b9050919050565b60006020820190506110b16000830184610f41565b92915050565b60006020820190506110cc6000830184610f50565b92915050565b600081519050919050565b600082825260208201905092915050565b60006110f982611182565b915061110483611182565b9250827fffffffffffffffffffffffffffffffffffffffffffffffffffffffffffffffff03821115611139576111386111fe565b5b828201905092915050565b600061114f82611162565b9050919050565b60008115159050919050565b600073ffffffffffffffffffffffffffffffffffffffff82169050919050565b6000819050919050565b600060ff82169050919050565b60005b838110156111b757808201518184015260208101905061119c565b838111156111c6576000848401525b50505050565b600060028204905060018216806111e457607f821691505b602082108114156111f8576111f761122d565b5b50919050565b7f4e487b7100000000000000000000000000000000000000000000000000000000600052601160045260246000fd5b7f4e487b7100000000000000000000000000000000000000000000000000000000600052602260045260246000fd5b6000601f19601f8301169050919050565b7f45524332303a207472616e7366657220746f20746865207a65726f206164647260008201527f6573730000000000000000000000000000000000000000000000000000000000602082015250565b7f45524332303a20617070726f766520746f20746865207a65726f20616464726560008201527f7373000000000000000000000000000000000000000000000000000000000000602082015250565b7f45524332303a20696e73756666696369656e7420616c6c6f77616e6365000000600082015250565b7f45524332303a207472616e7366657220616d6f756e742065786365656473206260008201527f616c616e63650000000000000000000000000000000000000000000000000000602082015250565b7f45524332303a207472616e736665722066726f6d20746865207a65726f20616460008201527f6472657373000000000000000000000000000000000000000000000000000000602082015250565b7f45524332303a20617070726f76652066726f6d20746865207a65726f2061646460008201527f7265737300000000000000000000000000000000000000000000000000000000602082015250565b7f45524332303a2064656372656173656420616c6c6f77616e63652062656c6f7760008201527f207a65726f000000000000000000000000000000000000000000000000000000602082015250565b7f45524332303a206d696e7420746f20746865207a65726f206164647265737300600082015250565b6114a281611144565b81146114ad57600080fd5b50565b6114b981611182565b81146114c457600080fd5b5056fea2646970667358221220338cba021c81588ecf48a704de33f516582ee566e9cffce57e951213521e5a7864736f6c63430008040033",
  "immutableReferences": {},
  "source": "// SPDX-License-Identifier: MIT\npragma solidity ^0.8.4;\nimport './ERC20.sol';\n\ncontract customERC20 is ERC20 {\n    // Constructor del Smart Contract\n    constructor(string memory _name, string memory _symbol)\n        ERC20(_name, _symbol)\n    {}\n\n    // Creacion de nuevos Tokens\n    function crearTokens() public {\n        _mint(msg.sender, 1000);\n    }\n}\n",
  "sourcePath": "/home/catella/folder/solidity-advanced/ERC20/contracts/CustomERC20.sol",
  "compiler": {
    "name": "solc",
    "version": "0.8.4+commit.c7e474f2.Emscripten.clang"
  },
  "schemaVersion": "3.4.7",
  "updatedAt": "2022-11-18T19:24:07.601Z",
  "networkType": "ethereum",
  "devdoc": {
    "kind": "dev",
    "methods": {},
    "version": 1
  },
  "userdoc": {
    "kind": "user",
    "methods": {},
    "version": 1
  }
}